{
  "contractName": "ETHLotteryManager",
  "abi": [
    {
      "constant": true,
      "inputs": [],
      "name": "owner",
      "outputs": [
        {
          "name": "",
          "type": "address"
        }
      ],
      "payable": false,
      "stateMutability": "view",
      "type": "function"
    },
    {
      "inputs": [],
      "payable": false,
      "stateMutability": "nonpayable",
      "type": "constructor"
    },
    {
      "anonymous": false,
      "inputs": [
        {
          "indexed": false,
          "name": "_lottery",
          "type": "address"
        }
      ],
      "name": "Register",
      "type": "event"
    },
    {
      "anonymous": false,
      "inputs": [],
      "name": "Destroy",
      "type": "event"
    },
    {
      "constant": true,
      "inputs": [],
      "name": "lotteries",
      "outputs": [
        {
          "name": "",
          "type": "address[]"
        }
      ],
      "payable": false,
      "stateMutability": "view",
      "type": "function"
    },
    {
      "constant": false,
      "inputs": [],
      "name": "register",
      "outputs": [],
      "payable": false,
      "stateMutability": "nonpayable",
      "type": "function"
    },
    {
      "constant": false,
      "inputs": [],
      "name": "destruct",
      "outputs": [],
      "payable": false,
      "stateMutability": "nonpayable",
      "type": "function"
    }
  ],
  "bytecode": "0x6060604052341561000f57600080fd5b336000806101000a81548173ffffffffffffffffffffffffffffffffffffffff021916908373ffffffffffffffffffffffffffffffffffffffff16021790555061047e8061005e6000396000f300606060405260043610610062576000357c0100000000000000000000000000000000000000000000000000000000900463ffffffff16806307f90e5d146100675780631aa3a008146100d15780632b68b9c6146100e65780638da5cb5b146100fb575b600080fd5b341561007257600080fd5b61007a610150565b6040518080602001828103825283818151815260200191508051906020019060200280838360005b838110156100bd5780820151818401526020810190506100a2565b505050509050019250505060405180910390f35b34156100dc57600080fd5b6100e46101e4565b005b34156100f157600080fd5b6100f9610307565b005b341561010657600080fd5b61010e6103c8565b604051808273ffffffffffffffffffffffffffffffffffffffff1673ffffffffffffffffffffffffffffffffffffffff16815260200191505060405180910390f35b6101586103ed565b60018054806020026020016040519081016040528092919081815260200182805480156101da57602002820191906000526020600020905b8160009054906101000a900473ffffffffffffffffffffffffffffffffffffffff1673ffffffffffffffffffffffffffffffffffffffff1681526020019060010190808311610190575b5050505050905090565b6000809054906101000a900473ffffffffffffffffffffffffffffffffffffffff1673ffffffffffffffffffffffffffffffffffffffff163273ffffffffffffffffffffffffffffffffffffffff1614151561023f57600080fd5b600180548060010182816102539190610401565b9160005260206000209001600033909190916101000a81548173ffffffffffffffffffffffffffffffffffffffff021916908373ffffffffffffffffffffffffffffffffffffffff160217905550507feeda149c76076b34d4b9d8896c2f7efc0d33d1c7b53ea3c5db490d64613f603a33604051808273ffffffffffffffffffffffffffffffffffffffff1673ffffffffffffffffffffffffffffffffffffffff16815260200191505060405180910390a1565b6000809054906101000a900473ffffffffffffffffffffffffffffffffffffffff1673ffffffffffffffffffffffffffffffffffffffff163273ffffffffffffffffffffffffffffffffffffffff1614151561036257600080fd5b7ff58fef8e187ef8dfd7bef096c1ef3e4f3c54f98d95b8ad5659349b07e61204df60405160405180910390a16000809054906101000a900473ffffffffffffffffffffffffffffffffffffffff1673ffffffffffffffffffffffffffffffffffffffff16ff5b6000809054906101000a900473ffffffffffffffffffffffffffffffffffffffff1681565b602060405190810160405280600081525090565b81548183558181151161042857818360005260206000209182019101610427919061042d565b5b505050565b61044f91905b8082111561044b576000816000905550600101610433565b5090565b905600a165627a7a7230582079ac2eff52600d4e429a54489eb93bc3a358844a740884ce00dc8e4fb1d854e90029",
  "source": "pragma solidity ^0.4.15;\r\n\r\ncontract ETHLotteryManager {\r\n    address public owner;\r\n    address[] lottery_list;\r\n\r\n    event Register(address _lottery);\r\n    event Destroy();\r\n\r\n    function ETHLotteryManager() {\r\n        owner = msg.sender;\r\n    }\r\n\r\n    modifier isOwner() {\r\n        require(tx.origin == owner);\r\n        _;\r\n    }\r\n\r\n    function lotteries() constant returns (address[]) {\r\n        return lottery_list;\r\n    }\r\n\r\n    function register() isOwner {\r\n        lottery_list.push(msg.sender);\r\n        Register(msg.sender);\r\n    }\r\n\r\n    function destruct() isOwner {\r\n        Destroy();\r\n        selfdestruct(owner);\r\n    }\r\n}\r\n",
  "sourcePath": "D:\\Perso\\Techlabs\\Blockchain101+SmartContracts\\Labs\\Complete\\3_SmartContract\\contracts\\ETHLotteryManager.sol",
  "compiler": {
    "name": "solc",
    "version": "0.4.19+commit.c4cbbb05.Emscripten.clang"
  },
  "schemaVersion": "2.0.0",
  "updatedAt": "2018-03-26T11:03:26.198Z"
}