{
  "contractName": "ETHLottery",
  "abi": [
    {
      "constant": true,
      "inputs": [],
      "name": "name",
      "outputs": [
        {
          "name": "",
          "type": "bytes32"
        }
      ],
      "payable": false,
      "stateMutability": "view",
      "type": "function"
    },
    {
      "constant": true,
      "inputs": [],
      "name": "accumulated_from",
      "outputs": [
        {
          "name": "",
          "type": "address"
        }
      ],
      "payable": false,
      "stateMutability": "view",
      "type": "function"
    },
    {
      "constant": true,
      "inputs": [],
      "name": "accumulate_to",
      "outputs": [
        {
          "name": "",
          "type": "address"
        }
      ],
      "payable": false,
      "stateMutability": "view",
      "type": "function"
    },
    {
      "constant": true,
      "inputs": [],
      "name": "owner_fee",
      "outputs": [
        {
          "name": "",
          "type": "uint256"
        }
      ],
      "payable": false,
      "stateMutability": "view",
      "type": "function"
    },
    {
      "constant": true,
      "inputs": [],
      "name": "manager_address",
      "outputs": [
        {
          "name": "",
          "type": "address"
        }
      ],
      "payable": false,
      "stateMutability": "view",
      "type": "function"
    },
    {
      "constant": true,
      "inputs": [],
      "name": "result_block",
      "outputs": [
        {
          "name": "",
          "type": "uint256"
        }
      ],
      "payable": false,
      "stateMutability": "view",
      "type": "function"
    },
    {
      "constant": true,
      "inputs": [],
      "name": "result",
      "outputs": [
        {
          "name": "",
          "type": "bytes1"
        }
      ],
      "payable": false,
      "stateMutability": "view",
      "type": "function"
    },
    {
      "constant": true,
      "inputs": [],
      "name": "jackpot",
      "outputs": [
        {
          "name": "",
          "type": "uint256"
        }
      ],
      "payable": false,
      "stateMutability": "view",
      "type": "function"
    },
    {
      "constant": true,
      "inputs": [],
      "name": "owner",
      "outputs": [
        {
          "name": "",
          "type": "address"
        }
      ],
      "payable": false,
      "stateMutability": "view",
      "type": "function"
    },
    {
      "constant": true,
      "inputs": [],
      "name": "create_block",
      "outputs": [
        {
          "name": "",
          "type": "uint256"
        }
      ],
      "payable": false,
      "stateMutability": "view",
      "type": "function"
    },
    {
      "constant": true,
      "inputs": [],
      "name": "result_hash",
      "outputs": [
        {
          "name": "",
          "type": "bytes32"
        }
      ],
      "payable": false,
      "stateMutability": "view",
      "type": "function"
    },
    {
      "constant": true,
      "inputs": [],
      "name": "fee",
      "outputs": [
        {
          "name": "",
          "type": "uint256"
        }
      ],
      "payable": false,
      "stateMutability": "view",
      "type": "function"
    },
    {
      "constant": true,
      "inputs": [],
      "name": "winners_count",
      "outputs": [
        {
          "name": "",
          "type": "uint256"
        }
      ],
      "payable": false,
      "stateMutability": "view",
      "type": "function"
    },
    {
      "constant": true,
      "inputs": [],
      "name": "open",
      "outputs": [
        {
          "name": "",
          "type": "bool"
        }
      ],
      "payable": false,
      "stateMutability": "view",
      "type": "function"
    },
    {
      "inputs": [
        {
          "name": "_manager",
          "type": "address"
        },
        {
          "name": "_fee",
          "type": "uint256"
        },
        {
          "name": "_jackpot",
          "type": "uint256"
        },
        {
          "name": "_owner_fee",
          "type": "uint256"
        },
        {
          "name": "_accumulated_from",
          "type": "address"
        }
      ],
      "payable": false,
      "stateMutability": "nonpayable",
      "type": "constructor"
    },
    {
      "anonymous": false,
      "inputs": [
        {
          "indexed": false,
          "name": "_balance",
          "type": "uint256"
        }
      ],
      "name": "Balance",
      "type": "event"
    },
    {
      "anonymous": false,
      "inputs": [
        {
          "indexed": false,
          "name": "_result",
          "type": "bytes1"
        }
      ],
      "name": "Result",
      "type": "event"
    },
    {
      "anonymous": false,
      "inputs": [
        {
          "indexed": false,
          "name": "_open",
          "type": "bool"
        }
      ],
      "name": "Open",
      "type": "event"
    },
    {
      "anonymous": false,
      "inputs": [
        {
          "indexed": true,
          "name": "_sender",
          "type": "address"
        },
        {
          "indexed": false,
          "name": "_byte",
          "type": "bytes1"
        },
        {
          "indexed": false,
          "name": "_time",
          "type": "uint256"
        }
      ],
      "name": "Play",
      "type": "event"
    },
    {
      "anonymous": false,
      "inputs": [
        {
          "indexed": true,
          "name": "_sender",
          "type": "address"
        },
        {
          "indexed": false,
          "name": "_amount",
          "type": "uint256"
        },
        {
          "indexed": false,
          "name": "_time",
          "type": "uint256"
        }
      ],
      "name": "Withdraw",
      "type": "event"
    },
    {
      "anonymous": false,
      "inputs": [],
      "name": "Destroy",
      "type": "event"
    },
    {
      "anonymous": false,
      "inputs": [
        {
          "indexed": false,
          "name": "_accumulate_to",
          "type": "address"
        },
        {
          "indexed": false,
          "name": "_amount",
          "type": "uint256"
        }
      ],
      "name": "Accumulate",
      "type": "event"
    },
    {
      "constant": false,
      "inputs": [
        {
          "name": "_byte",
          "type": "bytes1"
        }
      ],
      "name": "play",
      "outputs": [
        {
          "name": "",
          "type": "bool"
        }
      ],
      "payable": true,
      "stateMutability": "payable",
      "type": "function"
    },
    {
      "constant": false,
      "inputs": [
        {
          "name": "_result_hash",
          "type": "bytes32"
        }
      ],
      "name": "manual_lottery",
      "outputs": [],
      "payable": false,
      "stateMutability": "nonpayable",
      "type": "function"
    },
    {
      "constant": false,
      "inputs": [],
      "name": "lottery",
      "outputs": [],
      "payable": false,
      "stateMutability": "nonpayable",
      "type": "function"
    },
    {
      "constant": false,
      "inputs": [],
      "name": "withdraw",
      "outputs": [
        {
          "name": "",
          "type": "bool"
        }
      ],
      "payable": false,
      "stateMutability": "nonpayable",
      "type": "function"
    },
    {
      "constant": false,
      "inputs": [],
      "name": "accumulate",
      "outputs": [],
      "payable": false,
      "stateMutability": "nonpayable",
      "type": "function"
    },
    {
      "constant": false,
      "inputs": [],
      "name": "destruct",
      "outputs": [],
      "payable": false,
      "stateMutability": "nonpayable",
      "type": "function"
    }
  ],
  "bytecode": "0x60606040527f4554484c6f7474657279202d204c61737420312042797465204c6f7474657279600090600019169055341561003957600080fd5b60405160a0806117e28339810160405280805190602001909190805190602001909190805190602001909190805190602001909190805190602001909190505060008033600260006101000a81548173ffffffffffffffffffffffffffffffffffffffff021916908373ffffffffffffffffffffffffffffffffffffffff1602179055506001600260146101000a81548160ff0219169083151502179055504360068190555086600160006101000a81548173ffffffffffffffffffffffffffffffffffffffff021916908373ffffffffffffffffffffffffffffffffffffffff160217905550856004819055508460038190555083600581905550600260009054906101000a900473ffffffffffffffffffffffffffffffffffffffff1673ffffffffffffffffffffffffffffffffffffffff168373ffffffffffffffffffffffffffffffffffffffff1614151561026a5782600a60016101000a81548173ffffffffffffffffffffffffffffffffffffffff021916908373ffffffffffffffffffffffffffffffffffffffff160217905550600a60019054906101000a900473ffffffffffffffffffffffffffffffffffffffff1691508173ffffffffffffffffffffffffffffffffffffffff1663a53aeb4e6040518163ffffffff167c0100000000000000000000000000000000000000000000000000000000028152600401600060405180830381600087803b151561025557600080fd5b6102c65a03f1151561026657600080fd5b5050505b600160009054906101000a900473ffffffffffffffffffffffffffffffffffffffff1690508073ffffffffffffffffffffffffffffffffffffffff16631aa3a0086040518163ffffffff167c0100000000000000000000000000000000000000000000000000000000028152600401600060405180830381600087803b15156102f257600080fd5b6102c65a03f1151561030357600080fd5b5050507fc15f25c4eb6ac5b9dc23661b850cbdb3ee36aebed198ad870ab929bae77142de600260149054906101000a900460ff16604051808215151515815260200191505060405180910390a15050505050505061147c806103666000396000f300606060405260043610610112576000357c0100000000000000000000000000000000000000000000000000000000900463ffffffff16806306fdde031461011757806309fca9511461014857806310e80ded1461019d57806314ce4059146101f25780631800ed8e1461021b5780632b68b9c6146102705780633ccfd60b14610285578063494d93cc146102b25780634f01d77e146102db57806365372147146103025780636b31ee011461036f5780638da5cb5b1461039857806394e47e61146103ed578063a53aeb4e14610416578063ba13a5721461042b578063be3e33d514610440578063ca92a13614610492578063ddca3f43146104c3578063fbe6a9b2146104ec578063fcfff16f14610515575b600080fd5b341561012257600080fd5b61012a610542565b60405180826000191660001916815260200191505060405180910390f35b341561015357600080fd5b61015b610548565b604051808273ffffffffffffffffffffffffffffffffffffffff1673ffffffffffffffffffffffffffffffffffffffff16815260200191505060405180910390f35b34156101a857600080fd5b6101b061056e565b604051808273ffffffffffffffffffffffffffffffffffffffff1673ffffffffffffffffffffffffffffffffffffffff16815260200191505060405180910390f35b34156101fd57600080fd5b610205610594565b6040518082815260200191505060405180910390f35b341561022657600080fd5b61022e61059a565b604051808273ffffffffffffffffffffffffffffffffffffffff1673ffffffffffffffffffffffffffffffffffffffff16815260200191505060405180910390f35b341561027b57600080fd5b6102836105c0565b005b341561029057600080fd5b61029861069f565b604051808215151515815260200191505060405180910390f35b34156102bd57600080fd5b6102c561087a565b6040518082815260200191505060405180910390f35b34156102e657600080fd5b610300600480803560001916906020019091905050610880565b005b341561030d57600080fd5b610315610b83565b60405180827effffffffffffffffffffffffffffffffffffffffffffffffffffffffffffff19167effffffffffffffffffffffffffffffffffffffffffffffffffffffffffffff1916815260200191505060405180910390f35b341561037a57600080fd5b610382610bb5565b6040518082815260200191505060405180910390f35b34156103a357600080fd5b6103ab610bbb565b604051808273ffffffffffffffffffffffffffffffffffffffff1673ffffffffffffffffffffffffffffffffffffffff16815260200191505060405180910390f35b34156103f857600080fd5b610400610be1565b6040518082815260200191505060405180910390f35b341561042157600080fd5b610429610be7565b005b341561043657600080fd5b61043e610d9d565b005b61047860048080357effffffffffffffffffffffffffffffffffffffffffffffffffffffffffffff19169060200190919050506110de565b604051808215151515815260200191505060405180910390f35b341561049d57600080fd5b6104a56113da565b60405180826000191660001916815260200191505060405180910390f35b34156104ce57600080fd5b6104d66113e0565b6040518082815260200191505060405180910390f35b34156104f757600080fd5b6104ff6113e6565b6040518082815260200191505060405180910390f35b341561052057600080fd5b6105286113ec565b604051808215151515815260200191505060405180910390f35b60005481565b600a60019054906101000a900473ffffffffffffffffffffffffffffffffffffffff1681565b600b60009054906101000a900473ffffffffffffffffffffffffffffffffffffffff1681565b60055481565b600160009054906101000a900473ffffffffffffffffffffffffffffffffffffffff1681565b600260149054906101000a900460ff161515156105dc57600080fd5b600260009054906101000a900473ffffffffffffffffffffffffffffffffffffffff1673ffffffffffffffffffffffffffffffffffffffff163373ffffffffffffffffffffffffffffffffffffffff1614151561063857600080fd5b7ff58fef8e187ef8dfd7bef096c1ef3e4f3c54f98d95b8ad5659349b07e61204df60405160405180910390a1600260009054906101000a900473ffffffffffffffffffffffffffffffffffffffff1673ffffffffffffffffffffffffffffffffffffffff16ff5b600080600260149054906101000a900460ff161515156106be57600080fd5b6000600d60003373ffffffffffffffffffffffffffffffffffffffff1673ffffffffffffffffffffffffffffffffffffffff1681526020019081526020016000205411151561070c57600080fd5b600d60003373ffffffffffffffffffffffffffffffffffffffff1673ffffffffffffffffffffffffffffffffffffffff1681526020019081526020016000205490506000600d60003373ffffffffffffffffffffffffffffffffffffffff1673ffffffffffffffffffffffffffffffffffffffff168152602001908152602001600020819055503373ffffffffffffffffffffffffffffffffffffffff166108fc829081150290604051600060405180830381858888f19350505050151561081b5780600d60003373ffffffffffffffffffffffffffffffffffffffff1673ffffffffffffffffffffffffffffffffffffffff1681526020019081526020016000208190555060009150610876565b3373ffffffffffffffffffffffffffffffffffffffff167ff279e6a1f5e320cca91135676d9cb6e44ca8a08c0b88342bcdb1144f6511b5688242604051808381526020018281526020019250505060405180910390a2600191505b5090565b60075481565b6000806000600260149054906101000a900460ff161515156108a157600080fd5b600260009054906101000a900473ffffffffffffffffffffffffffffffffffffffff1673ffffffffffffffffffffffffffffffffffffffff163373ffffffffffffffffffffffffffffffffffffffff161415156108fd57600080fd5b8360098160001916905550600954601f60208110151561091957fe5b1a7f010000000000000000000000000000000000000000000000000000000000000002600a60006101000a81548160ff02191690837f010000000000000000000000000000000000000000000000000000000000000090040217905550600c6000600a60009054906101000a90047f0100000000000000000000000000000000000000000000000000000000000000027effffffffffffffffffffffffffffffffffffffffffffffffffffffffffffff19167effffffffffffffffffffffffffffffffffffffffffffffffffffffffffffff191681526020019081526020016000209250828054905060088190555060006008541115610ad4576008543073ffffffffffffffffffffffffffffffffffffffff1631811515610a3757fe5b049150600090505b600854811015610ad35781600d60008584815481101515610a5c57fe5b906000526020600020900160009054906101000a900473ffffffffffffffffffffffffffffffffffffffff1673ffffffffffffffffffffffffffffffffffffffff1673ffffffffffffffffffffffffffffffffffffffff168152602001908152602001600020819055508080600101915050610a3f565b5b7fce2892841501496330839ba407f44943da10eb31b71db5c90df80c1ae1d7d1d3600a60009054906101000a90047f01000000000000000000000000000000000000000000000000000000000000000260405180827effffffffffffffffffffffffffffffffffffffffffffffffffffffffffffff19167effffffffffffffffffffffffffffffffffffffffffffffffffffffffffffff1916815260200191505060405180910390a150505050565b600a60009054906101000a90047f01000000000000000000000000000000000000000000000000000000000000000281565b60035481565b600260009054906101000a900473ffffffffffffffffffffffffffffffffffffffff1681565b60065481565b600260009054906101000a900473ffffffffffffffffffffffffffffffffffffffff1673ffffffffffffffffffffffffffffffffffffffff163273ffffffffffffffffffffffffffffffffffffffff16141515610c4357600080fd5b600260149054906101000a900460ff16151515610c5f57600080fd5b60006001026009546000191614158015610c7b57506000600854145b1515610c8657600080fd5b33600b60006101000a81548173ffffffffffffffffffffffffffffffffffffffff021916908373ffffffffffffffffffffffffffffffffffffffff1602179055503373ffffffffffffffffffffffffffffffffffffffff166108fc3073ffffffffffffffffffffffffffffffffffffffff16319081150290604051600060405180830381858888f1935050505015610d9b577f7e98bc8f89e5efd34c3306b5f212781ef818e91840831c7b7947cf060865ffc7333073ffffffffffffffffffffffffffffffffffffffff1631604051808373ffffffffffffffffffffffffffffffffffffffff1673ffffffffffffffffffffffffffffffffffffffff1681526020018281526020019250505060405180910390a15b565b6000806000600260149054906101000a900460ff16151515610dbe57600080fd5b6007544310158015610dd65750610100600754014311155b8015610def575060095460001916600754406000191614155b1515610dfa57600080fd5b600260009054906101000a900473ffffffffffffffffffffffffffffffffffffffff1673ffffffffffffffffffffffffffffffffffffffff163373ffffffffffffffffffffffffffffffffffffffff16141515610e5657600080fd5b6007544060098160001916905550600954601f602081101515610e7557fe5b1a7f010000000000000000000000000000000000000000000000000000000000000002600a60006101000a81548160ff02191690837f010000000000000000000000000000000000000000000000000000000000000090040217905550600c6000600a60009054906101000a90047f0100000000000000000000000000000000000000000000000000000000000000027effffffffffffffffffffffffffffffffffffffffffffffffffffffffffffff19167effffffffffffffffffffffffffffffffffffffffffffffffffffffffffffff191681526020019081526020016000209250828054905060088190555060006008541115611030576008543073ffffffffffffffffffffffffffffffffffffffff1631811515610f9357fe5b049150600090505b60085481101561102f5781600d60008584815481101515610fb857fe5b906000526020600020900160009054906101000a900473ffffffffffffffffffffffffffffffffffffffff1673ffffffffffffffffffffffffffffffffffffffff1673ffffffffffffffffffffffffffffffffffffffff168152602001908152602001600020819055508080600101915050610f9b565b5b7fce2892841501496330839ba407f44943da10eb31b71db5c90df80c1ae1d7d1d3600a60009054906101000a90047f01000000000000000000000000000000000000000000000000000000000000000260405180827effffffffffffffffffffffffffffffffffffffffffffffffffffffffffffff19167effffffffffffffffffffffffffffffffffffffffffffffffffffffffffffff1916815260200191505060405180910390a1505050565b600080600260149054906101000a900460ff1615156110fc57600080fd5b600454341015151561110d57600080fd5b600c6000847effffffffffffffffffffffffffffffffffffffffffffffffffffffffffffff19167effffffffffffffffffffffffffffffffffffffffffffffffffffffffffffff19168152602001908152602001600020805480600101828161117691906113ff565b9160005260206000209001600033909190916101000a81548173ffffffffffffffffffffffffffffffffffffffff021916908373ffffffffffffffffffffffffffffffffffffffff160217905550506003543073ffffffffffffffffffffffffffffffffffffffff16311015156112e75760646005543073ffffffffffffffffffffffffffffffffffffffff16310281151561120e57fe5b049050600260009054906101000a900473ffffffffffffffffffffffffffffffffffffffff1673ffffffffffffffffffffffffffffffffffffffff166108fc829081150290604051600060405180830381858888f19350505050151561127757600091506113d4565b6000600260146101000a81548160ff021916908315150217905550600a43016007819055507fc15f25c4eb6ac5b9dc23661b850cbdb3ee36aebed198ad870ab929bae77142de600260149054906101000a900460ff16604051808215151515815260200191505060405180910390a15b7fe8d947d7ebdd7b8b8fa2ad2022c7591418ac32d8c29c5f8a8fc9de52ffa540923073ffffffffffffffffffffffffffffffffffffffff16316040518082815260200191505060405180910390a13373ffffffffffffffffffffffffffffffffffffffff167fa59307e8fe3d4b654d8d230e2ca86c8cfd44a732b78879c2afed9c90c8f00c1a844260405180837effffffffffffffffffffffffffffffffffffffffffffffffffffffffffffff19167effffffffffffffffffffffffffffffffffffffffffffffffffffffffffffff191681526020018281526020019250505060405180910390a2600191505b50919050565b60095481565b60045481565b60085481565b600260149054906101000a900460ff1681565b81548183558181151161142657818360005260206000209182019101611425919061142b565b5b505050565b61144d91905b80821115611449576000816000905550600101611431565b5090565b905600a165627a7a72305820b32922780faa97fa96e256edbd72ac766045470562f6d85f99213ffbbec37d440029",
  "source": "pragma solidity ^0.4.15;\r\n\r\ncontract ETHLotteryManagerInterface {\r\n    function register();\r\n}\r\n\r\ncontract ETHLotteryInterface {\r\n    function accumulate();\r\n}\r\n\r\ncontract ETHLottery {\r\n    bytes32 public name = 'ETHLottery - Last 1 Byte Lottery';\r\n    address public manager_address;\r\n    address public owner;\r\n    bool public open;\r\n    uint256 public jackpot;\r\n    uint256 public fee;\r\n    uint256 public owner_fee;\r\n    uint256 public create_block;\r\n    uint256 public result_block;\r\n    uint256 public winners_count;\r\n    bytes32 public result_hash;\r\n    bytes1 public result;\r\n    address public accumulated_from;\r\n    address public accumulate_to;\r\n\r\n    mapping (bytes1 => address[]) bettings;\r\n    mapping (address => uint256) credits;\r\n\r\n    event Balance(uint256 _balance);\r\n    event Result(bytes1 _result);\r\n    event Open(bool _open);\r\n    event Play(address indexed _sender, bytes1 _byte, uint256 _time);\r\n    event Withdraw(address indexed _sender, uint256 _amount, uint256 _time);\r\n    event Destroy();\r\n    event Accumulate(address _accumulate_to, uint256 _amount);\r\n\r\n    function ETHLottery(address _manager, uint256 _fee, uint256 _jackpot, uint256 _owner_fee, address _accumulated_from) {\r\n        owner = msg.sender;\r\n        open = true;\r\n        create_block = block.number; \r\n        manager_address = _manager;\r\n        fee = _fee;\r\n        jackpot = _jackpot;\r\n        owner_fee = _owner_fee;\r\n        // accumulate\r\n        if (_accumulated_from != owner) {\r\n            accumulated_from = _accumulated_from;\r\n            ETHLotteryInterface lottery = ETHLotteryInterface(accumulated_from);\r\n            lottery.accumulate();\r\n        }\r\n        // register with manager\r\n        ETHLotteryManagerInterface manager = ETHLotteryManagerInterface(manager_address);\r\n        manager.register();\r\n        Open(open);\r\n    }\r\n\r\n    modifier isOwner() {\r\n        require(msg.sender == owner);\r\n        _;\r\n    }\r\n\r\n    modifier isOriginalOwner() {\r\n        // used tx.origin on purpose instead of\r\n        // msg.sender, as we want to get the original\r\n        // starter of the transaction to be owner\r\n        require(tx.origin == owner);\r\n        _;\r\n    }\r\n\r\n    modifier isOpen() {\r\n        require(open);\r\n        _;\r\n    }\r\n\r\n    modifier isClosed() {\r\n        require(!open);\r\n        _;\r\n    }\r\n\r\n    modifier isPaid() {\r\n        require(msg.value >= fee);\r\n        _;\r\n    }\r\n\r\n    modifier hasPrize() {\r\n        require(credits[msg.sender] > 0);\r\n        _;\r\n    }\r\n\r\n    modifier isAccumulated() {\r\n        require(result_hash != 0 && winners_count == 0);\r\n        _;\r\n    }\r\n\r\n    modifier hasResultHash() {\r\n        require(\r\n            block.number >= result_block &&\r\n            block.number <= result_block + 256 &&\r\n            block.blockhash(result_block) != result_hash\r\n            );\r\n        _;\r\n    }\r\n    \r\n    function play(bytes1 _byte) payable isOpen isPaid returns (bool) {\r\n        bettings[_byte].push(msg.sender);\r\n        if (this.balance >= jackpot) {\r\n            uint256 owner_fee_amount = (this.balance * owner_fee) / 100;\r\n            // this is the transaction which\r\n            // will generate the block used\r\n            // to count until the 10th in order\r\n            // to get the lottery result.\r\n            if (!owner.send(owner_fee_amount)) {\r\n                return false;\r\n            }\r\n            open = false;\r\n            // block offset hardcoded to 10\r\n            result_block = block.number + 10;\r\n            Open(open);\r\n        }\r\n        Balance(this.balance);\r\n        Play(msg.sender, _byte, now);\r\n        return true;\r\n    }\r\n\r\n    // This method is only used if we miss the 256th block\r\n    // containing the result hash, lottery() should be used instead\r\n    // this method as this is duplicated from lottery()\r\n    function manual_lottery(bytes32 _result_hash) isClosed isOwner {\r\n        result_hash = _result_hash;\r\n        result = result_hash[31];\r\n        address[] storage winners = bettings[result];\r\n        winners_count = winners.length;\r\n        if (winners_count > 0) {\r\n            uint256 credit = this.balance / winners_count;\r\n            for (uint256 i = 0; i < winners_count; i++) {\r\n                credits[winners[i]] = credit;\r\n            }\r\n        }\r\n        Result(result);\r\n    }\r\n\r\n    function lottery() isClosed hasResultHash isOwner {\r\n        result_hash = block.blockhash(result_block);\r\n        // get last byte (31st) from block hash as result\r\n        result = result_hash[31];\r\n        address[] storage winners = bettings[result];\r\n        winners_count = winners.length;\r\n        if (winners_count > 0) {\r\n            uint256 credit = this.balance / winners_count;\r\n            for (uint256 i = 0; i < winners_count; i++) {\r\n                credits[winners[i]] = credit;\r\n            }\r\n        }\r\n        Result(result);\r\n    }\r\n\r\n    function withdraw() isClosed hasPrize returns (bool) {\r\n        uint256 credit = credits[msg.sender];\r\n        // zero credit before send preventing re-entrancy\r\n        // as msg.sender can be a contract and call us back\r\n        credits[msg.sender] = 0;\r\n        if (!msg.sender.send(credit)) {\r\n            // transfer failed, return credit for withdraw\r\n            credits[msg.sender] = credit;\r\n            return false;\r\n        }\r\n        Withdraw(msg.sender, credit, now);\r\n        return true;\r\n    }\r\n\r\n    function accumulate() isOriginalOwner isClosed isAccumulated {\r\n        accumulate_to = msg.sender;\r\n        if (msg.sender.send(this.balance)) {\r\n            Accumulate(msg.sender, this.balance);\r\n        }\r\n    }\r\n\r\n    function destruct() isClosed isOwner {\r\n        Destroy();\r\n        selfdestruct(owner);\r\n    }\r\n}\r\n",
  "sourcePath": "D:\\Perso\\Techlabs\\Blockchain101+SmartContracts\\Labs\\Complete\\3_SmartContract\\contracts\\ETHLottery.sol",
  "compiler": {
    "name": "solc",
    "version": "0.4.19+commit.c4cbbb05.Emscripten.clang"
  },
  "schemaVersion": "2.0.0",
  "updatedAt": "2018-03-26T11:03:26.190Z"
}