{
  "contractName": "Roulette",
  "abi": [
    {
      "constant": true,
      "inputs": [
        {
          "name": "",
          "type": "uint256"
        }
      ],
      "name": "bets",
      "outputs": [
        {
          "name": "id",
          "type": "uint256"
        },
        {
          "name": "betType",
          "type": "uint8"
        },
        {
          "name": "player",
          "type": "address"
        },
        {
          "name": "number",
          "type": "uint256"
        },
        {
          "name": "value",
          "type": "uint256"
        }
      ],
      "payable": false,
      "stateMutability": "view",
      "type": "function"
    },
    {
      "constant": true,
      "inputs": [],
      "name": "nextRoundTimestamp",
      "outputs": [
        {
          "name": "",
          "type": "uint256"
        }
      ],
      "payable": false,
      "stateMutability": "view",
      "type": "function"
    },
    {
      "inputs": [
        {
          "name": "interval",
          "type": "uint256"
        }
      ],
      "payable": true,
      "stateMutability": "payable",
      "type": "constructor"
    },
    {
      "anonymous": false,
      "inputs": [
        {
          "indexed": false,
          "name": "number",
          "type": "uint256"
        },
        {
          "indexed": false,
          "name": "nextRoundTimestamp",
          "type": "uint256"
        },
        {
          "indexed": false,
          "name": "wonAmount",
          "type": "uint256"
        }
      ],
      "name": "Resulted",
      "type": "event"
    },
    {
      "anonymous": false,
      "inputs": [
        {
          "indexed": false,
          "name": "betId",
          "type": "uint256"
        },
        {
          "indexed": false,
          "name": "player",
          "type": "address"
        },
        {
          "indexed": false,
          "name": "number",
          "type": "uint256"
        },
        {
          "indexed": false,
          "name": "value",
          "type": "uint256"
        }
      ],
      "name": "NewSingleBet",
      "type": "event"
    },
    {
      "anonymous": false,
      "inputs": [
        {
          "indexed": false,
          "name": "betId",
          "type": "uint256"
        },
        {
          "indexed": false,
          "name": "player",
          "type": "address"
        },
        {
          "indexed": false,
          "name": "value",
          "type": "uint256"
        }
      ],
      "name": "NewEvenBet",
      "type": "event"
    },
    {
      "anonymous": false,
      "inputs": [
        {
          "indexed": false,
          "name": "betId",
          "type": "uint256"
        },
        {
          "indexed": false,
          "name": "player",
          "type": "address"
        },
        {
          "indexed": false,
          "name": "value",
          "type": "uint256"
        }
      ],
      "name": "NewOddBet",
      "type": "event"
    },
    {
      "constant": true,
      "inputs": [],
      "name": "getNextRoundTimestamp",
      "outputs": [
        {
          "name": "",
          "type": "uint256"
        }
      ],
      "payable": false,
      "stateMutability": "view",
      "type": "function"
    },
    {
      "constant": true,
      "inputs": [],
      "name": "getBetsLength",
      "outputs": [
        {
          "name": "",
          "type": "uint256"
        }
      ],
      "payable": false,
      "stateMutability": "view",
      "type": "function"
    },
    {
      "constant": true,
      "inputs": [
        {
          "name": "index",
          "type": "uint256"
        }
      ],
      "name": "getBetAt",
      "outputs": [
        {
          "name": "betId",
          "type": "uint256"
        },
        {
          "name": "player",
          "type": "address"
        },
        {
          "name": "number",
          "type": "uint256"
        },
        {
          "name": "value",
          "type": "uint256"
        },
        {
          "name": "betType",
          "type": "uint256"
        }
      ],
      "payable": false,
      "stateMutability": "view",
      "type": "function"
    },
    {
      "constant": false,
      "inputs": [
        {
          "name": "number",
          "type": "uint256"
        }
      ],
      "name": "betSingle",
      "outputs": [],
      "payable": true,
      "stateMutability": "payable",
      "type": "function"
    },
    {
      "constant": false,
      "inputs": [],
      "name": "betEven",
      "outputs": [],
      "payable": true,
      "stateMutability": "payable",
      "type": "function"
    },
    {
      "constant": false,
      "inputs": [],
      "name": "betOdd",
      "outputs": [],
      "payable": true,
      "stateMutability": "payable",
      "type": "function"
    },
    {
      "constant": false,
      "inputs": [],
      "name": "launch",
      "outputs": [],
      "payable": true,
      "stateMutability": "payable",
      "type": "function"
    },
    {
      "constant": true,
      "inputs": [
        {
          "name": "betType",
          "type": "uint8"
        }
      ],
      "name": "getPayoutForType",
      "outputs": [
        {
          "name": "",
          "type": "uint256"
        }
      ],
      "payable": false,
      "stateMutability": "pure",
      "type": "function"
    }
  ],
  "bytecode": "0x60806040526040516020806110a6833981018060405281019080805190602001909291905050508060018190555033600260006101000a81548173ffffffffffffffffffffffffffffffffffffffff021916908373ffffffffffffffffffffffffffffffffffffffff16021790555060015442016000819055505061101d806100896000396000f3006080604052600436106100a4576000357c0100000000000000000000000000000000000000000000000000000000900463ffffffff16806301339c21146100a957806322af00fa146100b357806326eafae91461014a5780634bb0948d1461018e578063703bf91f146101b9578063adde36bb146101d9578063b633b2ab146101e3578063cc4580c81461020e578063dc97652514610239578063f4519035146102c2575b600080fd5b6100b16102cc565b005b3480156100bf57600080fd5b506100de600480360381019080803590602001909291905050506105ba565b604051808681526020018560028111156100f457fe5b60ff1681526020018473ffffffffffffffffffffffffffffffffffffffff1673ffffffffffffffffffffffffffffffffffffffff1681526020018381526020018281526020019550505050505060405180910390f35b34801561015657600080fd5b50610178600480360381019080803560ff16906020019092919050505061062c565b6040518082815260200191505060405180910390f35b34801561019a57600080fd5b506101a361065f565b6040518082815260200191505060405180910390f35b6101d760048036038101908080359060200190929190505050610665565b005b6101e16108f6565b005b3480156101ef57600080fd5b506101f8610b55565b6040518082815260200191505060405180910390f35b34801561021a57600080fd5b50610223610b5e565b6040518082815260200191505060405180910390f35b34801561024557600080fd5b5061026460048036038101908080359060200190929190505050610b6b565b604051808681526020018573ffffffffffffffffffffffffffffffffffffffff1673ffffffffffffffffffffffffffffffffffffffff1681526020018481526020018381526020018281526020019550505050505060405180910390f35b6102ca610ced565b005b600080600080600080544210156102e257600080fd5b60256001430340600190048115156102f657fe5b06945060009350600092505b60048054905083101561054a57600091506000600281111561032057fe5b60048481548110151561032f57fe5b906000526020600020906004020160010160009054906101000a900460ff16600281111561035957fe5b1415610391578460048481548110151561036f57fe5b906000526020600020906004020160020154141561038c57600191505b61047c565b60028081111561039d57fe5b6004848154811015156103ac57fe5b906000526020600020906004020160010160009054906101000a900460ff1660028111156103d657fe5b1415610407576000851180156103f8575060006002868115156103f557fe5b06145b1561040257600191505b61047b565b6001600281111561041457fe5b60048481548110151561042357fe5b906000526020600020906004020160010160009054906101000a900460ff16600281111561044d57fe5b141561047a5760008511801561046f5750600160028681151561046c57fe5b06145b1561047957600191505b5b5b5b811561053d576104b860048481548110151561049457fe5b906000526020600020906004020160010160009054906101000a900460ff1661062c565b840293506004838154811015156104cb57fe5b906000526020600020906004020160010160019054906101000a900473ffffffffffffffffffffffffffffffffffffffff1673ffffffffffffffffffffffffffffffffffffffff166108fc859081150290604051600060405180830381858888f19350505050151561053c57600080fd5b5b8280600101935050610302565b6000549050600154810160008190555060006004816105699190610f4d565b507f5279f1358e00764cbf4ed2f4e1858a77154618d8408d7a4937467fabffbef23b856000548660405180848152602001838152602001828152602001935050505060405180910390a15050505050565b6004818154811015156105c957fe5b90600052602060002090600402016000915090508060000154908060010160009054906101000a900460ff16908060010160019054906101000a900473ffffffffffffffffffffffffffffffffffffffff16908060020154908060030154905085565b600080600281111561063a57fe5b82600281111561064657fe5b1415610655576023905061065a565b600290505b919050565b60005481565b60008034141561067457600080fd5b60008060008060009250600091505b6004805490508210156106f95760048281548110151561069f57fe5b9060005260206000209060040201600301546106e76004848154811015156106c357fe5b906000526020600020906004020160010160009054906101000a900460ff1661062c565b02830192508180600101925050610683565b346107038561062c565b02830192503073ffffffffffffffffffffffffffffffffffffffff163190508083111561072f57600080fd5b600086108061073e5750602486115b1561074857600080fd5b60036000815480929190600101919050559450600460a060405190810160405280600360008154809291906001019190505581526020016000600281111561078c57fe5b81526020013373ffffffffffffffffffffffffffffffffffffffff16815260200188815260200134815250908060018154018082558091505090600182039060005260206000209060040201600090919290919091506000820151816000015560208201518160010160006101000a81548160ff0219169083600281111561081057fe5b021790555060408201518160010160016101000a81548173ffffffffffffffffffffffffffffffffffffffff021916908373ffffffffffffffffffffffffffffffffffffffff16021790555060608201518160020155608082015181600301555050507f750445a4568c66d1bb09b9681263c26e04964273a9b92f7dc2011faa7ed1252f85338834604051808581526020018473ffffffffffffffffffffffffffffffffffffffff1673ffffffffffffffffffffffffffffffffffffffff16815260200183815260200182815260200194505050505060405180910390a1505050505050565b60008034141561090557600080fd5b60026000806000809250600091505b60048054905082101561098a5760048281548110151561093057fe5b90600052602060002090600402016003015461097860048481548110151561095457fe5b906000526020600020906004020160010160009054906101000a900460ff1661062c565b02830192508180600101925050610914565b346109948561062c565b02830192503073ffffffffffffffffffffffffffffffffffffffff16319050808311156109c057600080fd5b60036000815480929190600101919050559450600460a0604051908101604052808781526020016002808111156109f357fe5b81526020013373ffffffffffffffffffffffffffffffffffffffff1681526020016000815260200134815250908060018154018082558091505090600182039060005260206000209060040201600090919290919091506000820151816000015560208201518160010160006101000a81548160ff02191690836002811115610a7857fe5b021790555060408201518160010160016101000a81548173ffffffffffffffffffffffffffffffffffffffff021916908373ffffffffffffffffffffffffffffffffffffffff16021790555060608201518160020155608082015181600301555050507f727f4862f6185925b06a1ff056c622296fe8c2c2158a21dadac2afc9cd48f18e853334604051808481526020018373ffffffffffffffffffffffffffffffffffffffff1673ffffffffffffffffffffffffffffffffffffffff168152602001828152602001935050505060405180910390a15050505050565b60008054905090565b6000600480549050905090565b600080600080600085600480549050111515610b8657600080fd5b600280811115610b9257fe5b600487815481101515610ba157fe5b906000526020600020906004020160010160009054906101000a900460ff166002811115610bcb57fe5b1415610bda5760269050610c35565b60016002811115610be757fe5b600487815481101515610bf657fe5b906000526020600020906004020160010160009054906101000a900460ff166002811115610c2057fe5b1415610c2f5760279050610c34565b600090505b5b600486815481101515610c4457fe5b906000526020600020906004020160000154600487815481101515610c6557fe5b906000526020600020906004020160010160019054906101000a900473ffffffffffffffffffffffffffffffffffffffff16600488815481101515610ca657fe5b906000526020600020906004020160020154600489815481101515610cc757fe5b906000526020600020906004020160030154849450945094509450945091939590929450565b600080341415610cfc57600080fd5b60026000806000809250600091505b600480549050821015610d8157600482815481101515610d2757fe5b906000526020600020906004020160030154610d6f600484815481101515610d4b57fe5b906000526020600020906004020160010160009054906101000a900460ff1661062c565b02830192508180600101925050610d0b565b34610d8b8561062c565b02830192503073ffffffffffffffffffffffffffffffffffffffff1631905080831115610db757600080fd5b60036000815480929190600101919050559450600460a06040519081016040528087815260200160016002811115610deb57fe5b81526020013373ffffffffffffffffffffffffffffffffffffffff1681526020016000815260200134815250908060018154018082558091505090600182039060005260206000209060040201600090919290919091506000820151816000015560208201518160010160006101000a81548160ff02191690836002811115610e7057fe5b021790555060408201518160010160016101000a81548173ffffffffffffffffffffffffffffffffffffffff021916908373ffffffffffffffffffffffffffffffffffffffff16021790555060608201518160020155608082015181600301555050507f4bd79f00dd12ecd87494d18dd14d9c340735b2e8c213f51bd2ebb9684bb10537853334604051808481526020018373ffffffffffffffffffffffffffffffffffffffff1673ffffffffffffffffffffffffffffffffffffffff168152602001828152602001935050505060405180910390a15050505050565b815481835581811115610f7a57600402816004028360005260206000209182019101610f799190610f7f565b5b505050565b610fee91905b80821115610fea576000808201600090556001820160006101000a81549060ff02191690556001820160016101000a81549073ffffffffffffffffffffffffffffffffffffffff02191690556002820160009055600382016000905550600401610f85565b5090565b905600a165627a7a723058208ca7c64405b6bb1601bb57456d68a5813d3926e4e7f8ba1de2e88a5c69e77d8e0029",
  "source": "pragma solidity ^0.4.2;\n\n\ncontract Roulette {\n    uint public nextRoundTimestamp;\n    uint private _interval;\n    address private _owner;\n    uint private _bet_identifier;\n\n    enum BetType { Single, Odd, Even }\n\n    struct Bet {\n        uint id;\n        BetType betType;\n        address player;\n        uint number;\n        uint value;\n    }\n\n    Bet[] public bets;\n\n    event Resulted(uint number, uint nextRoundTimestamp, uint wonAmount);\n    event NewSingleBet(uint betId, address player, uint number, uint value);\n    event NewEvenBet(uint betId, address player, uint value);\n    event NewOddBet(uint betId, address player, uint value);\n\n    constructor(uint interval) public payable {\n        _interval = interval;\n        _owner = msg.sender;\n        nextRoundTimestamp = now + _interval;\n    }\n\n    function getNextRoundTimestamp() public constant returns(uint) {\n        return nextRoundTimestamp;\n    }\n\n    function getBetsLength() public constant returns(uint) {\n         return bets.length;\n    }\n\n    function getBetAt(uint index) public constant returns(uint betId, address player, uint number, uint value, uint betType) {\n        if(bets.length <= index) revert();\n        if(bets[index].betType == BetType.Even){\n            betType = 38;\n        } else if(bets[index].betType == BetType.Odd){\n            betType = 39;\n        } else{\n            betType = 0;\n        }\n        return (bets[index].id, bets[index].player, bets[index].number, bets[index].value, betType);\n    }\n\n    function betSingle(uint number) payable public transactionMustContainEther() bankMustBeAbleToPayForBetType(BetType.Single) {\n        if (number <0 || number > 36) revert();\n        uint BetId = _bet_identifier++;\n        bets.push(Bet({\n            id: _bet_identifier++,\n            betType: BetType.Single,\n            player: msg.sender,\n            number: number,\n            value: msg.value\n        }));\n        emit NewSingleBet(BetId, msg.sender, number, msg.value);\n    }\n\n    function betEven() payable public transactionMustContainEther() bankMustBeAbleToPayForBetType(BetType.Even) {\n        uint BetId = _bet_identifier++;\n        bets.push(Bet({\n            id:BetId,\n            betType: BetType.Even,\n            player: msg.sender,\n            number: 0,\n            value: msg.value\n        }));\n        emit NewEvenBet(BetId, msg.sender, msg.value);\n    }\n\n    function betOdd() payable public transactionMustContainEther() bankMustBeAbleToPayForBetType(BetType.Even) {\n        uint BetId = _bet_identifier++;\n        bets.push(Bet({\n            id: BetId,\n            betType: BetType.Odd,\n            player: msg.sender,\n            number: 0,\n            value: msg.value\n        }));\n        emit NewOddBet(BetId, msg.sender, msg.value);\n    }\n\n    function launch() public payable {\n        if (now < nextRoundTimestamp) revert();\n        uint number = uint(blockhash(block.number - 1)) % 37;\n        uint won_amount = 0;\n\n        for (uint i = 0; i < bets.length; i++) {\n            bool won = false;\n\n            if (bets[i].betType == BetType.Single) {\n                if (bets[i].number == number) {\n                    won = true;\n                }\n            } else if (bets[i].betType == BetType.Even) {\n                if (number > 0 && number % 2 == 0) {\n                    won = true;\n                }\n            } else if (bets[i].betType == BetType.Odd) {\n                if (number > 0 && number % 2 == 1) {\n                    won = true;\n                }\n            }\n            if (won) {\n                won_amount = won_amount * getPayoutForType(bets[i].betType);\n                if (!bets[i].player.send(won_amount)) {\n                    revert();\n                }\n            }\n        }\n\n        uint thisRoundTimestamp = nextRoundTimestamp;\n        nextRoundTimestamp = thisRoundTimestamp + _interval;\n\n        bets.length = 0;\n\n        emit Resulted(number, nextRoundTimestamp, won_amount);\n    }\n\n    function getPayoutForType(BetType betType) public pure returns(uint) {\n        if (betType == BetType.Single) return 35;\n        else return 2;\n    }\n\n    modifier transactionMustContainEther() {\n        if (msg.value == 0) revert();\n        _;\n    }\n\n    modifier bankMustBeAbleToPayForBetType(BetType betType) {\n        uint necessaryBalance = 0;\n        for (uint i = 0; i < bets.length; i++) {\n            necessaryBalance += getPayoutForType(bets[i].betType) * bets[i].value;\n        }\n        necessaryBalance += getPayoutForType(betType) * msg.value;\n        uint currentBalance = address(this).balance;\n        if (necessaryBalance > currentBalance) revert();\n        _;\n    }\n}",
  "sourcePath": "C:\\Users\\paulf\\source\\repos\\Techlabs\\Blockchain101+SmartContracts\\Labs\\Complete\\3_SmartContract\\contracts\\Roulette.sol",
  "compiler": {
    "name": "solc",
    "version": "0.4.23+commit.124ca40d.Emscripten.clang"
  },
  "schemaVersion": "2.0.0",
  "updatedAt": "2018-04-22T17:44:59.203Z"
}